{
  "_format": "hh-sol-artifact-1",
  "contractName": "CoreLoanPlatform",
  "sourceName": "contracts/CoreLoanPlatform.sol",
  "abi": [
    {
      "inputs": [
        {
          "internalType": "address",
          "name": "_USD",
          "type": "address"
        },
        {
          "internalType": "address",
          "name": "_BTC",
          "type": "address"
        }
      ],
      "stateMutability": "nonpayable",
      "type": "constructor"
    },
    {
      "inputs": [
        {
          "internalType": "address",
          "name": "target",
          "type": "address"
        }
      ],
      "name": "AddressEmptyCode",
      "type": "error"
    },
    {
      "inputs": [
        {
          "internalType": "address",
          "name": "account",
          "type": "address"
        }
      ],
      "name": "AddressInsufficientBalance",
      "type": "error"
    },
    {
      "inputs": [],
      "name": "FailedInnerCall",
      "type": "error"
    },
    {
      "inputs": [
        {
          "internalType": "address",
          "name": "owner",
          "type": "address"
        }
      ],
      "name": "OwnableInvalidOwner",
      "type": "error"
    },
    {
      "inputs": [
        {
          "internalType": "address",
          "name": "account",
          "type": "address"
        }
      ],
      "name": "OwnableUnauthorizedAccount",
      "type": "error"
    },
    {
      "inputs": [
        {
          "internalType": "address",
          "name": "token",
          "type": "address"
        }
      ],
      "name": "SafeERC20FailedOperation",
      "type": "error"
    },
    {
      "anonymous": false,
      "inputs": [
        {
          "indexed": true,
          "internalType": "address",
          "name": "lender",
          "type": "address"
        },
        {
          "indexed": false,
          "internalType": "uint256",
          "name": "amount",
          "type": "uint256"
        }
      ],
      "name": "BTCDeposited",
      "type": "event"
    },
    {
      "anonymous": false,
      "inputs": [
        {
          "indexed": true,
          "internalType": "address",
          "name": "lender",
          "type": "address"
        },
        {
          "indexed": false,
          "internalType": "uint256",
          "name": "amount",
          "type": "uint256"
        }
      ],
      "name": "BTCWithdrawn",
      "type": "event"
    },
    {
      "anonymous": false,
      "inputs": [
        {
          "indexed": true,
          "internalType": "address",
          "name": "user",
          "type": "address"
        },
        {
          "indexed": false,
          "internalType": "uint256",
          "name": "amount",
          "type": "uint256"
        }
      ],
      "name": "CollateralDeposited",
      "type": "event"
    },
    {
      "anonymous": false,
      "inputs": [
        {
          "indexed": true,
          "internalType": "address",
          "name": "user",
          "type": "address"
        },
        {
          "indexed": false,
          "internalType": "uint256",
          "name": "amount",
          "type": "uint256"
        }
      ],
      "name": "CollateralWithdrawn",
      "type": "event"
    },
    {
      "anonymous": false,
      "inputs": [
        {
          "indexed": true,
          "internalType": "address",
          "name": "borrower",
          "type": "address"
        },
        {
          "indexed": false,
          "internalType": "uint256",
          "name": "amount",
          "type": "uint256"
        },
        {
          "indexed": false,
          "internalType": "uint256",
          "name": "interest",
          "type": "uint256"
        }
      ],
      "name": "LoanRepaid",
      "type": "event"
    },
    {
      "anonymous": false,
      "inputs": [
        {
          "indexed": true,
          "internalType": "address",
          "name": "borrower",
          "type": "address"
        },
        {
          "indexed": false,
          "internalType": "uint256",
          "name": "amount",
          "type": "uint256"
        },
        {
          "indexed": false,
          "internalType": "uint256",
          "name": "collateral",
          "type": "uint256"
        }
      ],
      "name": "LoanTaken",
      "type": "event"
    },
    {
      "anonymous": false,
      "inputs": [
        {
          "indexed": true,
          "internalType": "address",
          "name": "previousOwner",
          "type": "address"
        },
        {
          "indexed": true,
          "internalType": "address",
          "name": "newOwner",
          "type": "address"
        }
      ],
      "name": "OwnershipTransferred",
      "type": "event"
    },
    {
      "inputs": [],
      "name": "BORROWABLE_RATIO",
      "outputs": [
        {
          "internalType": "uint256",
          "name": "",
          "type": "uint256"
        }
      ],
      "stateMutability": "view",
      "type": "function"
    },
    {
      "inputs": [],
      "name": "BTC",
      "outputs": [
        {
          "internalType": "contract IERC20",
          "name": "",
          "type": "address"
        }
      ],
      "stateMutability": "view",
      "type": "function"
    },
    {
      "inputs": [],
      "name": "COLLATERAL_RATIO",
      "outputs": [
        {
          "internalType": "uint256",
          "name": "",
          "type": "uint256"
        }
      ],
      "stateMutability": "view",
      "type": "function"
    },
    {
      "inputs": [],
      "name": "INTEREST_RATE",
      "outputs": [
        {
          "internalType": "uint256",
          "name": "",
          "type": "uint256"
        }
      ],
      "stateMutability": "view",
      "type": "function"
    },
    {
      "inputs": [],
      "name": "LOAN_DURATION",
      "outputs": [
        {
          "internalType": "uint256",
          "name": "",
          "type": "uint256"
        }
      ],
      "stateMutability": "view",
      "type": "function"
    },
    {
      "inputs": [],
      "name": "USD",
      "outputs": [
        {
          "internalType": "contract IERC20",
          "name": "",
          "type": "address"
        }
      ],
      "stateMutability": "view",
      "type": "function"
    },
    {
      "inputs": [
        {
          "internalType": "uint256",
          "name": "amount",
          "type": "uint256"
        }
      ],
      "name": "borrowBTC",
      "outputs": [],
      "stateMutability": "nonpayable",
      "type": "function"
    },
    {
      "inputs": [
        {
          "internalType": "address",
          "name": "user",
          "type": "address"
        }
      ],
      "name": "calculateInterest",
      "outputs": [
        {
          "internalType": "uint256",
          "name": "",
          "type": "uint256"
        }
      ],
      "stateMutability": "view",
      "type": "function"
    },
    {
      "inputs": [
        {
          "internalType": "uint256",
          "name": "amount",
          "type": "uint256"
        }
      ],
      "name": "depositBTC",
      "outputs": [],
      "stateMutability": "nonpayable",
      "type": "function"
    },
    {
      "inputs": [
        {
          "internalType": "uint256",
          "name": "amount",
          "type": "uint256"
        }
      ],
      "name": "depositCollateral",
      "outputs": [],
      "stateMutability": "nonpayable",
      "type": "function"
    },
    {
      "inputs": [
        {
          "internalType": "address",
          "name": "user",
          "type": "address"
        }
      ],
      "name": "getBorrowableAmount",
      "outputs": [
        {
          "internalType": "uint256",
          "name": "",
          "type": "uint256"
        }
      ],
      "stateMutability": "view",
      "type": "function"
    },
    {
      "inputs": [],
      "name": "getCurrentApy",
      "outputs": [
        {
          "internalType": "uint256",
          "name": "",
          "type": "uint256"
        }
      ],
      "stateMutability": "pure",
      "type": "function"
    },
    {
      "inputs": [
        {
          "internalType": "address",
          "name": "lender",
          "type": "address"
        }
      ],
      "name": "getLenderBalance",
      "outputs": [
        {
          "internalType": "uint256",
          "name": "",
          "type": "uint256"
        }
      ],
      "stateMutability": "view",
      "type": "function"
    },
    {
      "inputs": [
        {
          "internalType": "address",
          "name": "borrower",
          "type": "address"
        }
      ],
      "name": "getLoanDetails",
      "outputs": [
        {
          "components": [
            {
              "internalType": "uint256",
              "name": "amount",
              "type": "uint256"
            },
            {
              "internalType": "uint256",
              "name": "collateral",
              "type": "uint256"
            },
            {
              "internalType": "uint256",
              "name": "timestamp",
              "type": "uint256"
            },
            {
              "internalType": "bool",
              "name": "active",
              "type": "bool"
            }
          ],
          "internalType": "struct CoreLoanPlatform.Loan",
          "name": "",
          "type": "tuple"
        }
      ],
      "stateMutability": "view",
      "type": "function"
    },
    {
      "inputs": [],
      "name": "getTotalBorrowed",
      "outputs": [
        {
          "internalType": "uint256",
          "name": "",
          "type": "uint256"
        }
      ],
      "stateMutability": "view",
      "type": "function"
    },
    {
      "inputs": [],
      "name": "getTotalStaked",
      "outputs": [
        {
          "internalType": "uint256",
          "name": "",
          "type": "uint256"
        }
      ],
      "stateMutability": "view",
      "type": "function"
    },
    {
      "inputs": [
        {
          "internalType": "address",
          "name": "user",
          "type": "address"
        }
      ],
      "name": "getUserBorrowed",
      "outputs": [
        {
          "internalType": "uint256",
          "name": "",
          "type": "uint256"
        }
      ],
      "stateMutability": "view",
      "type": "function"
    },
    {
      "inputs": [
        {
          "internalType": "address",
          "name": "user",
          "type": "address"
        }
      ],
      "name": "getUserCollateral",
      "outputs": [
        {
          "internalType": "uint256",
          "name": "",
          "type": "uint256"
        }
      ],
      "stateMutability": "view",
      "type": "function"
    },
    {
      "inputs": [
        {
          "internalType": "address",
          "name": "user",
          "type": "address"
        }
      ],
      "name": "getUserStaked",
      "outputs": [
        {
          "internalType": "uint256",
          "name": "",
          "type": "uint256"
        }
      ],
      "stateMutability": "view",
      "type": "function"
    },
    {
      "inputs": [
        {
          "internalType": "address",
          "name": "",
          "type": "address"
        }
      ],
      "name": "lenderBalances",
      "outputs": [
        {
          "internalType": "uint256",
          "name": "",
          "type": "uint256"
        }
      ],
      "stateMutability": "view",
      "type": "function"
    },
    {
      "inputs": [
        {
          "internalType": "address",
          "name": "",
          "type": "address"
        }
      ],
      "name": "loans",
      "outputs": [
        {
          "internalType": "uint256",
          "name": "amount",
          "type": "uint256"
        },
        {
          "internalType": "uint256",
          "name": "collateral",
          "type": "uint256"
        },
        {
          "internalType": "uint256",
          "name": "timestamp",
          "type": "uint256"
        },
        {
          "internalType": "bool",
          "name": "active",
          "type": "bool"
        }
      ],
      "stateMutability": "view",
      "type": "function"
    },
    {
      "inputs": [],
      "name": "owner",
      "outputs": [
        {
          "internalType": "address",
          "name": "",
          "type": "address"
        }
      ],
      "stateMutability": "view",
      "type": "function"
    },
    {
      "inputs": [],
      "name": "renounceOwnership",
      "outputs": [],
      "stateMutability": "nonpayable",
      "type": "function"
    },
    {
      "inputs": [
        {
          "internalType": "address",
          "name": "user",
          "type": "address"
        }
      ],
      "name": "repayLoan",
      "outputs": [],
      "stateMutability": "nonpayable",
      "type": "function"
    },
    {
      "inputs": [
        {
          "internalType": "address",
          "name": "newOwner",
          "type": "address"
        }
      ],
      "name": "transferOwnership",
      "outputs": [],
      "stateMutability": "nonpayable",
      "type": "function"
    },
    {
      "inputs": [
        {
          "internalType": "address",
          "name": "",
          "type": "address"
        }
      ],
      "name": "userCollateral",
      "outputs": [
        {
          "internalType": "uint256",
          "name": "",
          "type": "uint256"
        }
      ],
      "stateMutability": "view",
      "type": "function"
    },
    {
      "inputs": [
        {
          "internalType": "uint256",
          "name": "amount",
          "type": "uint256"
        }
      ],
      "name": "withdrawBTC",
      "outputs": [],
      "stateMutability": "nonpayable",
      "type": "function"
    },
    {
      "inputs": [
        {
          "internalType": "uint256",
          "name": "amount",
          "type": "uint256"
        }
      ],
      "name": "withdrawCollateral",
      "outputs": [],
      "stateMutability": "nonpayable",
      "type": "function"
    }
  ],
  "bytecode": "0x60c0604052600060015560006002553480156200001b57600080fd5b506040516200179d3803806200179d8339810160408190526200003e9162000166565b33806200006657604051631e4fbdf760e01b8152600060048201526024015b60405180910390fd5b6200007181620000f9565b506001600160a01b038216158015906200009357506001600160a01b03811615155b620000e15760405162461bcd60e51b815260206004820152601760248201527f496e76616c696420746f6b656e2061646472657373657300000000000000000060448201526064016200005d565b6001600160a01b039182166080521660a0526200019e565b600080546001600160a01b038381166001600160a01b0319831681178455604051919092169283917f8be0079c531659141344cd1fd0a4f28419497f9722a3daafe3b4186f6b6457e09190a35050565b80516001600160a01b03811681146200016157600080fd5b919050565b600080604083850312156200017a57600080fd5b620001858362000149565b9150620001956020840162000149565b90509250929050565b60805160a0516115a8620001f560003960008181610241015281816105d0015281816109cb01528181610a8801528181610df90152610f1f015260008181610202015281816108230152610b7b01526115a86000f3fe608060405234801561001057600080fd5b50600436106101c45760003560e01c8063a6b6d798116100f9578063e02a4dfd11610097578063e8a7da8e11610071578063e8a7da8e1461041a578063f2fde38b14610462578063f4925de514610475578063f69f1e4a1461047c57600080fd5b8063e02a4dfd146103d4578063e11932cf146103de578063e86ef40b146103f157600080fd5b8063bd09085a116100d3578063bd09085a14610390578063d1a40564146103b9578063d9e69a05146103cc578063dac3fc3f1461039057600080fd5b8063a6b6d79814610341578063b6f7132f14610354578063bad4a01f1461037d57600080fd5b8063691d1eb31161016657806373b4086b1161014057806373b4086b146102a15780638da5cb5b146102fd57806390b4588b1461030e578063a27a944d1461032157600080fd5b8063691d1eb31461027e5780636e35f12414610291578063715018a61461029957600080fd5b80631bf6c21b116101a25780631bf6c21b146101fd5780632792949d1461023c5780635b72a33a146102635780636112fe2e1461026b57600080fd5b80630307c4a1146101c95780630917e776146101e0578063190ef1e6146101e8575b600080fd5b6002545b6040519081526020015b60405180910390f35b6001546101cd565b6101fb6101f6366004611451565b61049c565b005b6102247f000000000000000000000000000000000000000000000000000000000000000081565b6040516001600160a01b0390911681526020016101d7565b6102247f000000000000000000000000000000000000000000000000000000000000000081565b6101cd600581565b6101fb61027936600461147a565b610661565b6101cd61028c366004611451565b610885565b6101cd605081565b6101fb6108bd565b6102db6102af366004611451565b600360208190526000918252604090912080546001820154600283015492909301549092919060ff1684565b60408051948552602085019390935291830152151560608201526080016101d7565b6000546001600160a01b0316610224565b6101fb61031c36600461147a565b6108d1565b6101cd61032f366004611451565b60056020526000908152604090205481565b6101fb61034f36600461147a565b610a2b565b6101cd610362366004611451565b6001600160a01b031660009081526004602052604090205490565b6101fb61038b36600461147a565b610b1e565b6101cd61039e366004611451565b6001600160a01b031660009081526005602052604090205490565b6101fb6103c736600461147a565b610bf9565b6101cd609681565b6101cd62278d0081565b6101cd6103ec366004611451565b610f94565b6101cd6103ff366004611451565b6001600160a01b031660009081526003602052604090205490565b61042d610428366004611451565b611019565b6040516101d7919081518152602080830151908201526040808301519082015260609182015115159181019190915260800190565b6101fb610470366004611451565b611096565b60056101cd565b6101cd61048a366004611451565b60046020526000908152604090205481565b6001600160a01b03811660009081526003602081905260409091209081015460ff1661050f5760405162461bcd60e51b815260206004820152600e60248201527f4e6f20616374697665206c6f616e00000000000000000000000000000000000060448201526064015b60405180910390fd5b60006201518082600201544261052591906114a9565b61052f91906114bc565b9050601e8111156105825760405162461bcd60e51b815260206004820152601e60248201527f4c6f616e206475726174696f6e206578636565646564203330206461797300006044820152606401610506565b6000618e94826005856000015461059991906114de565b6105a391906114de565b6105ad91906114bc565b905060008184600001546105c191906114f5565b90506105f86001600160a01b037f0000000000000000000000000000000000000000000000000000000000000000168630846110ed565b60038401805460ff191690558354600280546000906106189084906114a9565b90915550508354604080519182526020820184905233917fc7ce0a35f17b490de2a317e7fecb2cae86b1abffb03800b2f492823521382698910160405180910390a25050505050565b600081116106b15760405162461bcd60e51b815260206004820152601d60248201527f416d6f756e74206d7573742062652067726561746572207468616e20300000006044820152606401610506565b336000908152600460205260409020548111156107105760405162461bcd60e51b815260206004820152601760248201527f496e73756666696369656e7420636f6c6c61746572616c0000000000000000006044820152606401610506565b3360009081526003602081905260408220015460ff16610731576000610742565b336000908152600360205260409020545b9050600060646107536096846114de565b61075d91906114bc565b33600090815260046020526040902054909150819061077d9085906114a9565b10156107f15760405162461bcd60e51b815260206004820152602860248201527f5769746864726177616c20776f756c6420756e646572636f6c6c61746572616c60448201527f697a65206c6f616e0000000000000000000000000000000000000000000000006064820152608401610506565b33600090815260046020526040812080548592906108109084906114a9565b9091555061084a90506001600160a01b037f000000000000000000000000000000000000000000000000000000000000000016338561116f565b60405183815233907fc30fcfbcaac9e0deffa719714eaa82396ff506a0d0d0eebe170830177288715d906020015b60405180910390a2505050565b6001600160a01b0381166000908152600460205260408120546064906108ad906050906114de565b6108b791906114bc565b92915050565b6108c56111a5565b6108cf60006111eb565b565b600081116109215760405162461bcd60e51b815260206004820152601d60248201527f416d6f756e74206d7573742062652067726561746572207468616e20300000006044820152606401610506565b336000908152600560205260409020548111156109805760405162461bcd60e51b815260206004820152601460248201527f496e73756666696369656e742062616c616e63650000000000000000000000006044820152606401610506565b336000908152600560205260408120805483929061099f9084906114a9565b9250508190555080600160008282546109b891906114a9565b909155506109f290506001600160a01b037f000000000000000000000000000000000000000000000000000000000000000016338361116f565b60405181815233907f46cb947848d6e66f42fd865aff4e0b9765da557ed05874db5a3c931ccea58ef1906020015b60405180910390a250565b60008111610a7b5760405162461bcd60e51b815260206004820152601d60248201527f416d6f756e74206d7573742062652067726561746572207468616e20300000006044820152606401610506565b610ab06001600160a01b037f0000000000000000000000000000000000000000000000000000000000000000163330846110ed565b3360009081526005602052604081208054839290610acf9084906114f5565b925050819055508060016000828254610ae891906114f5565b909155505060405181815233907ec876900062bf6768530bd9be84c146f5c051f4a50a5bf7fbcdd9ed4c8fb15490602001610a20565b60008111610b6e5760405162461bcd60e51b815260206004820152601d60248201527f416d6f756e74206d7573742062652067726561746572207468616e20300000006044820152606401610506565b610ba36001600160a01b037f0000000000000000000000000000000000000000000000000000000000000000163330846110ed565b3360009081526004602052604081208054839290610bc29084906114f5565b909155505060405181815233907fd7243f6f8212d5188fd054141cf6ea89cfc0d91facb8c3afe2f88a135848014290602001610a20565b60008111610c495760405162461bcd60e51b815260206004820152601d60248201527f416d6f756e74206d7573742062652067726561746572207468616e20300000006044820152606401610506565b336000908152600360208190526040909120015460ff1615610cd35760405162461bcd60e51b815260206004820152602260248201527f4578697374696e67206c6f616e206d757374206265207265706169642066697260448201527f73740000000000000000000000000000000000000000000000000000000000006064820152608401610506565b60006064610ce26096846114de565b610cec91906114bc565b33600090815260046020526040902054909150811115610d4e5760405162461bcd60e51b815260206004820152601760248201527f496e73756666696369656e7420636f6c6c61746572616c0000000000000000006044820152606401610506565b33600090815260046020526040812054606490610d6d906050906114de565b610d7791906114bc565b905080831115610dc95760405162461bcd60e51b815260206004820152601b60248201527f426f72726f7720616d6f756e742065786365656473206c696d697400000000006044820152606401610506565b6040517f70a0823100000000000000000000000000000000000000000000000000000000815230600482015283907f00000000000000000000000000000000000000000000000000000000000000006001600160a01b0316906370a0823190602401602060405180830381865afa158015610e48573d6000803e3d6000fd5b505050506040513d601f19601f82011682018060405250810190610e6c9190611508565b1015610eba5760405162461bcd60e51b815260206004820152601c60248201527f496e73756666696369656e742042544320696e20636f6e7472616374000000006044820152606401610506565b604080516080810182528481526020808201858152428385019081526001606085018181523360008181526003968790529790972095518655925190850155516002840155519101805460ff1916911515919091179055610f46906001600160a01b037f000000000000000000000000000000000000000000000000000000000000000016908561116f565b8260026000828254610f5891906114f5565b9091555050604080518481526020810184905233917e6b9bb4766cf5ab74b890df959e4fad0e54b1c3885e49c9541d36253a6e39e69101610878565b6001600160a01b038116600090815260036020819052604082209081015460ff161561101057600062015180826002015442610fd091906114a9565b610fda91906114bc565b90506000618e948260058560000154610ff391906114de565b610ffd91906114de565b61100791906114bc565b95945050505050565b50600092915050565b61104660405180608001604052806000815260200160008152602001600081526020016000151581525090565b506001600160a01b031660009081526003602081815260409283902083516080810185528154815260018201549281019290925260028101549382019390935291015460ff161515606082015290565b61109e6111a5565b6001600160a01b0381166110e1576040517f1e4fbdf700000000000000000000000000000000000000000000000000000000815260006004820152602401610506565b6110ea816111eb565b50565b6040516001600160a01b0384811660248301528381166044830152606482018390526111699186918216906323b872dd906084015b604051602081830303815290604052915060e01b6020820180517bffffffffffffffffffffffffffffffffffffffffffffffffffffffff8381831617835250505050611253565b50505050565b6040516001600160a01b038381166024830152604482018390526111a091859182169063a9059cbb90606401611122565b505050565b6000546001600160a01b031633146108cf576040517f118cdaa7000000000000000000000000000000000000000000000000000000008152336004820152602401610506565b600080546001600160a01b038381167fffffffffffffffffffffffff0000000000000000000000000000000000000000831681178455604051919092169283917f8be0079c531659141344cd1fd0a4f28419497f9722a3daafe3b4186f6b6457e09190a35050565b60006112686001600160a01b038416836112cf565b9050805160001415801561128d57508080602001905181019061128b9190611521565b155b156111a0576040517f5274afe70000000000000000000000000000000000000000000000000000000081526001600160a01b0384166004820152602401610506565b60606112dd838360006112e4565b9392505050565b606081471015611322576040517fcd786059000000000000000000000000000000000000000000000000000000008152306004820152602401610506565b600080856001600160a01b0316848660405161133e9190611543565b60006040518083038185875af1925050503d806000811461137b576040519150601f19603f3d011682016040523d82523d6000602084013e611380565b606091505b509150915061139086838361139a565b9695505050505050565b6060826113af576113aa8261140f565b6112dd565b81511580156113c657506001600160a01b0384163b155b15611408576040517f9996b3150000000000000000000000000000000000000000000000000000000081526001600160a01b0385166004820152602401610506565b50806112dd565b80511561141f5780518082602001fd5b6040517f1425ea4200000000000000000000000000000000000000000000000000000000815260040160405180910390fd5b60006020828403121561146357600080fd5b81356001600160a01b03811681146112dd57600080fd5b60006020828403121561148c57600080fd5b5035919050565b634e487b7160e01b600052601160045260246000fd5b818103818111156108b7576108b7611493565b6000826114d957634e487b7160e01b600052601260045260246000fd5b500490565b80820281158282048414176108b7576108b7611493565b808201808211156108b7576108b7611493565b60006020828403121561151a57600080fd5b5051919050565b60006020828403121561153357600080fd5b815180151581146112dd57600080fd5b6000825160005b81811015611564576020818601810151858301520161154a565b50600092019182525091905056fea2646970667358221220c54f47bb5d75e2564d1373b0ba308c64ea4933b248c73c32a1c3c2da19b6c96464736f6c63430008180033",
  "linkReferences": {},
  "deployedLinkReferences": {}
}